:020000040800F2
:10000000D0070020C9010008950600087D050008FA
:10001000910600087F030008150C0008000000008E
:10002000000000000000000000000000850800083B
:100030006104000800000000150800089909000884
:10004000E3010008E3010008E3010008E301000800
:10005000E3010008E3010008E3010008E3010008F0
:10006000E3010008E3010008E3010008E3010008E0
:10007000E3010008E3010008E3010008E3010008D0
:10008000E3010008E3010008E3010008E3010008C0
:10009000E3010008E3010008E3010008E3010008B0
:1000A000E3010008E3010008E3010008E3010008A0
:1000B000E3010008E3010008E3010008E301000890
:1000C000E3010008E3010008E3010008E301000880
:1000D000E3010008E3010008E3010008E301000870
:1000E000E3010008E3010008E301000800F002F862
:1000F00000F05AF80AA090E8000C82448344AAF168
:100100000107DA4501D100F04FF8AFF2090EBAE865
:100110000F0013F0010F18BFFB1A43F0010318473B
:1001200058380000783800000A444FF0000C10F8EE
:10013000013B13F0070408BF10F8014B1D1108BF65
:1001400010F8015B641E05D010F8016B641E01F805
:10015000016BF9D113F0080F1EBF10F8014BAD1C55
:100160000C1B09D16D1E58BF01F801CBFAD505E073
:1001700014F8016B01F8016B6D1EF9D59142D6D3CD
:10018000704700000023002400250026103A28BFF5
:1001900078C1FBD8520728BF30C148BF0B607047F9
:1001A0001FB51FBD10B510BD00F044F81146FFF794
:1001B000F7FF01F073FB00F062F803B4FFF7F2FF02
:1001C00003BC00F065F80000094880470948004773
:1001D000FEE7FEE7FEE7FEE7FEE7FEE7FEE7FEE7F7
:1001E000FEE7FEE704480549054A064B7047000054
:1001F0009D090008ED000008D0010020D007002074
:10020000D0030020D003002070477047704710B51E
:1002100000F008F8006810BD10B5044600F002F8C0
:10022000046010BD004870476C0100200048704712
:100230006C0100207546FFF7F9FFAE4605006946E0
:10024000534620F00700854618B020B5FFF7CAFFD7
:10025000BDE820404FF000064FF000074FF00008C7
:100260004FF0000B21F00701AC46ACE8C009ACE848
:10027000C009ACE8C009ACE8C0098D46704710B5AC
:100280000446AFF300802046BDE81040FFF795BF5D
:1002900001491820ABBEFEE7260002007047017836
:1002A00001B97047417A012902D1002141704160B2
:1002B000017AC8295ED1002101724178022906D055
:1002C000032919D004292CD0052940D12EE0827AA7
:1002D0004168914204D3002141600321417042E012
:1002E000427B4169114441614168491C4160417C44
:1002F00009B90521417036E0C27A4168914204D3C0
:1003000000214160042141702DE0827B4169891AFE
:1003100041614168491C4160417C09B90521417036
:1003200021E0417C09B9052141701CE0027B416854
:10033000914204D3002141600121417013E0C27B4E
:100340004169891A41614168491C41600BE0002103
:100350004160417C012902D10221417000E000BFCF
:100360000021416100BF00BF017C42695143090A7D
:10037000816102E0017A491C017200BF91E700BF70
:10038000FEE7000039B1084A1268012383401A438E
:10039000054B1A6006E0044A1268012383409A4321
:1003A000014B1A60704700000074004030B5002215
:1003B00000230A4C226840F6FE748440A243D1E92F
:1003C00000452C438D682C43CD6844EA050303FAAD
:1003D00000F42243014C226030BD00000074004054
:1003E00008B500220092054A009200F10802009B25
:1003F0001A440092009A116008BD00000074004089
:1004000000B585B00121042000F016FA012148074B
:1004100000F002FA1020ADF8100000208DF8130053
:1004200003208DF8120004A90C4800F01AF81021DE
:100430000A4800F0A1F8002000900190029003907B
:100440006946FFF7B3FF01210020FFF79BFF002162
:100450000846FFF7C5FF05B000BD000000080140D9
:1004600070472DE9F04102460025002600200023B8
:100470000024002791F803C00CF00F0591F803C089
:100480000CF0100CBCF1000F03D091F802C04CEA44
:10049000050591F800C0BCF1000F31D014680020B0
:1004A0002BE04FF0010C0CFA00F3B1F800C00CEA9D
:1004B00003069E4220D183004FF00F0C0CFA03F785
:1004C000BC4305FA03FC4CEA040491F803C0BCF1F8
:1004D000280F06D14FF0010C0CFA00FCC2F814C032
:1004E0000AE091F803C0BCF1480F05D14FF0010CB0
:1004F0000CFA00FCC2F810C0401C0828D1D31460CC
:10050000B1F800C0BCF1FF0F34DD546800202EE0CC
:1005100000F1080C4FF0010808FA0CF3B1F800C024
:100520000CEA03069E4221D183004FF00F0C0CFA17
:1005300003F7BC4305FA03FC4CEA040491F803C03A
:10054000BCF1280F05D100F1080C08FA0CF8C2F82C
:10055000148091F803C0BCF1480F07D100F1080CDA
:100560004FF0010808FA0CF8C2F81080401C082867
:10057000CED35460BDE8F0810161704700BFFEE753
:100580000B48006840F400500949086008460068BC
:1005900040F40040086008460068C0F30E000860A0
:1005A000084600684DF6FF71084001490860704731
:1005B0000C0C01400848006840F4005006490860EF
:1005C00008460068C0F30E0008600846006840F462
:1005D00000400860704700000C0C014006480068AD
:1005E00040F4005004490860084600684DF6FF7169
:1005F00008400149086070470C0C0140F0B50C46FA
:10060000059D4168C82907D3002141600168491C44
:1006100001600121816002E04168491C41608168FC
:10062000002931D00169067D012E11D103EBC106ED
:100630003679164F37F8266036B2E68003EBC106EE
:1006400076791674012656740026567206758660F1
:1006500053F83160C7683E440768BE4213D253F86E
:100660003170C6683E44C6600669761C0661016941
:10067000A94203DD00260661C660066000265674A6
:1006800001265672067500BFF0BD00001400002060
:1006900000BFFEE7704730B5002418E004F1B00059
:1006A000002100F0ABF80021084600F0A7F8002177
:1006B000102000F0A3F8002505E00121002000F043
:1006C0009DF8681CC5B2802DF7DB601CC4B2082CF5
:1006D000E4DB30BD08B50121082000F0ADF84FF48F
:1006E0002840ADF8000010208DF8030003208DF89D
:1006F000020069464048FFF7B4FE4FF400513E48FF
:10070000FFF73AFF4FF400413B48FFF735FF4FF446
:1007100000613948FFF730FFC82000F057FF002183
:10072000AE2000F06BF80021084600F067F80021C9
:10073000102000F063F80021402000F05FF8002155
:10074000B02000F05BF80021812000F057F8002174
:10075000FF2000F053F80021A12000F04FF8002105
:10076000A62000F04BF80021A82000F047F8002157
:100770003F2000F043F80021C82000F03FF800219E
:10078000D32000F03BF80021084600F037F80021A4
:10079000D52000F033F80021802000F02FF8002150
:1007A000D82000F02BF80021052000F027F80021C8
:1007B000D92000F023F80021F12000F01FF80021DB
:1007C000DA2000F01BF80021122000F017F80021B9
:1007D000DB2000F013F80021302000F00FF800219A
:1007E0008D2000F00BF80021142000F007F8002104
:1007F000AF2000F003F808BD000C014030B50446FE
:100800000D461DB1E0B200F021FB02E0E0B200F0C5
:1008100007FB30BD7047000029B1064AD269024388
:10082000044BDA6104E0034AD2698243014BDA6186
:10083000704700000010024029B1064A9269024345
:10084000044B9A6104E0034A92698243014B9A6126
:10085000704700000010024070B505460E46144671
:10086000284600F061FAB5F90800314600F0D4F9E5
:100870002046FFF714FD0A21A069B0FBF1F0716971
:10088000484370BD704710B500F002F810BD00007D
:100890000CB50020019000903348006840F480308F
:1008A0003149086000BF3048006800F40030009013
:1008B0000198401C0190009818B90198B0F5A06FFC
:1008C000F1D12948006800F4003010B101200090F7
:1008D00001E0002000900098012843D123480068DF
:1008E00040F01000214908600846006820F003002D
:1008F00008600846006840F0020008601A48406836
:10090000194948600846406848600846406840F415
:10091000806048600846406820F47C1048600846C3
:10092000406840F4E81048600846006840F0807075
:10093000086000BF0C48006800F000700028F9D083
:100940000948406820F003000749486008464068AD
:1009500040F00200486000BF0348406800F00C000F
:100960000828F9D10CBD0000001002400020024010
:10097000042808D14FF0E021096941F004014FF04B
:10098000E022116107E04FF0E021096921F0040144
:100990004FF0E022116170477047000010B5134816
:1009A000006840F00100114908600846406810499D
:1009B00008400E494860084600680E4908400B4947
:1009C00008600846006820F48020086008464068F7
:1009D00020F4FE0048604FF41F008860FFF753FFCB
:1009E0004FF000600449086010BD00000010024094
:1009F0000000FFF8FFFFF6FE08ED00E030B587B01D
:100A000005460C460121C802FFF716FFADF8145049
:100A1000ADF810400020ADF81600ADF8120004A9A2
:100A2000114800F0A5F87020ADF800000120ADF8E5
:100A300002000020ADF80600ADF8080069460A483B
:100A400000F03EF80121084800F028F80821064887
:100A500000F082F80121044800F008F80021024863
:100A600000F083F807B030BD002C014021B10288AE
:100A700042F08002028004E002884FF67F731A4041
:100A80000280704721B1028842F00102028004E036
:100A900002884FF6FE731A400280704731B1B0F8F9
:100AA000442042F40042A0F8442005E0B0F844207D
:100AB000C2F30E02A0F8442070470146888C7047AC
:100AC00070B5002400220023058C4FF6FE763540D9
:100AD0000584028C8388048B4FF68F752C40B51EDD
:100AE0002C400D882C43751E2A400D892A434D88C1
:100AF0002A43144DA8420BD0134DA84208D0134DE1
:100B0000A84205D0124DA84202D0124DA84213D1DE
:100B10004FF6F7752A404D892A434FF6FB752A4058
:100B20008D882A434FF6FF652B404FF6FF552B402B
:100B30008D892B43CD892B4383800483CD88858683
:100B4000028470BD002C014000340140004001408F
:100B500000440140004801400A460021018B4FF645
:100B6000F773194011430183704781847047000077
:100B7000002202881D4B98420ED01D4B98420BD08C
:100B8000B0F1804F08D01B4B984205D01A4B9842C9
:100B900002D01A4B984204D14FF68F731A404B88FB
:100BA0001A43174B984207D0164B984204D04FF681
:100BB000FF431A40CB881A4302808B8883850B88B9
:100BC00003850A4B98420BD0094B984208D00E4B34
:100BD000984205D00D4B984202D00D4B984201D15E
:100BE0000B7A03860123838270470000002C0140AA
:100BF000003401400004004000080040000C0040A8
:100C0000001000400014004000400140004401403A
:100C10000048014000BFFEE710B54B698A685A439F
:100C20004B6803FB00228C69CB6803FB04220A613A
:100C30004A698A610A69D31702EB93439B134B619C
:100C400010BD00002DE9F04788B08246BAF90000D7
:100C500001F007F92D4A2E4BCDE9040101F068F9A6
:100C600000222C4BCDE9060100F074FF064600F08F
:100C7000D3FC04460022284B01F05AF9804601F0CB
:100C8000C1F8CAF80C00BAF9020001F0EAF880468F
:100C90001E4A224B01F04CF9064600221D4B00F083
:100CA00059FF044600F022FCCDE90401BAF9000026
:100CB00001F0D7F80646154A194B01F039F9002220
:100CC000144BCDE9000100F045FF044600F0A4FC00
:100CD00080460022134B01F02BF9CDE90201DDE93A
:100CE000042301F025F9CDE9060101F08BF8CAF8DB
:100CF0000800DAF80800C0F58040DAF80C10401A55
:100D0000CAF8040008B0BDE8F08700004AD8124DC8
:100D1000FB2119C00088D3400000D0C0FB2119403E
:100D2000FB2109C00000E040B0F9021044F61F6248
:100D3000914208DBB0F90210B0F906201144A1F588
:100D40009C41203904E0B0F90210B0F906201144AA
:100D500009B241800178012902D002291AD10CE0A0
:100D6000B0F90210142291FBF2F109B28180B0F9BE
:100D700004100F4A5156018118E0B0F902101422F4
:100D800091FBF2F109B28180B0F90410094A515681
:100D900001810BE0B0F90210502291FBF2F109B28F
:100DA000818081887D3909B2018100BF00BF704711
:100DB00074240008442C000830B501460846174C3E
:100DC00024684DF6FF752C40144D2C60002322E062
:100DD000024602F08002802A06D1104C246844F4B6
:100DE00000440E4D2C6005E00C4C2468C4F30E0446
:100DF0000A4D2C604406200E084C246844F400542C
:100E0000064D2C602C4624684DF6FF752C40034D92
:100E10002C605C1CE3B2082BDADB30BD0C0C01400B
:100E200010B50446FFF7ACFB7820FFF7C5FFFFF7CE
:100E3000D5FB0020FFF7C0FFFFF7D0FB2046FFF7F0
:100E4000BBFFFFF7CBFBFFF7B5FB10BD10B50446AA
:100E5000FFF796FB7820FFF7AFFFFFF7BFFB4020BF
:100E6000FFF7AAFFFFF7BAFB2046FFF7A5FFFFF742
:100E7000B5FBFFF79FFB10BD490050EAC12018BF2A
:100E800004204A0D18BF40F0010040F2FF72B2EB9F
:100E9000515F08BF40F00200012808BF05207047DD
:100EA0002DE9F74F144694B00021C4E902111599B9
:100EB000079121F00045C9498D4206DC1599C4E926
:100EC000000117B00020BDE8F08FC549DFF814A37A
:100ED000A9423CDD0799C44E0029C44FC44A159964
:100EE000534619DD01F064F9554506D0C14AC24B9D
:100EF00001F05EF9C4E900010AE04FF0D352BE4BA5
:100F000001F056F932463B4601F052F9C4E90001BE
:100F100017B00120BDE8F08F00F060FD554506D008
:100F2000B44AB54B00F05AFDC4E900010AE04FF0A5
:100F3000D352B14B00F052FD32463B4600F04EFD1D
:100F4000C4E9000117B04FF0FF30BDE8F08FAB49A6
:100F5000A942159978DB21F0004183468846A84ACA
:100F6000A84B00F0E5FF0022A74B00F037FD00F092
:100F700049FF099000F075FF06460F469C4A53460C
:100F800000F0D6FF43465A4601F006F980468A46ED
:100F9000984A994B3046394600F0CAFF2A0D012580
:100FA0000B924246534601F0F7F8032DC4E90001C5
:100FB00039D00B98C1F30A51401A05EB451111398C
:100FC000814230DA9148C346784400EB0510CDF8F1
:100FD0000CA00C90D0E900233046394600F0A8FF61
:100FE00002460B46049106905846039901F0E0F83A
:100FF00080468A4602460B465846039901F0D8F8C7
:10100000049B069A01F0D4F883460C980391394664
:10101000D0E90223304600F08BFF5A46039B01F0D3
:10102000C7F86D1CBDE707980028A2BF099817B044
:10103000BDE8F08F616881F000416160099817B0E8
:101040004042BDE8F08FFFE784461598C1F31301D5
:10105000C0F30A50A0F2F5304FEA601800F01F0606
:10106000C6F12000139000200690079041F4801EE6
:1010700005206D4676B1664A08EB00017A4452F8C5
:10108000213002EB8101B3404A68139922FA01F141
:10109000194305E05F4908EB0002794451F822103A
:1010A000A1FB0E27A1FB0C131A449A4234BF012363
:1010B000002303EB070A05EB8003D3E901B70F44D4
:1010C0008F4234BF0121002193448B4411B19345D9
:1010D00002D903E0934501D2012100E00021C3E9D8
:1010E00001B7514445F82010011EA0F10100C1DCF8
:1010F0000298059F00F10050800F12900298DDE9E0
:101100000356800000F0ADFE834628460D9100F0A6
:10111000BFFE6FF01D0201F067F9CDE90E01304608
:1011200000F0B6FE6FF03D0201F05EF980468A469F
:10113000384600F0ADFE6FF05D0201F055F907464C
:1011400042465346119100F049FCDDE90E2300F0C0
:1011500045FC5A460D9B00F041FC00250E465A46C0
:1011600028460D9B01F024F8DDE90E2301F020F85C
:101170004246534601F01CF83A46119B01F00CF828
:10118000DFF898A0244A534600F0D2FE074688466E
:10119000234A244B3146284600F0CAFE3A464346CD
:1011A00000F01CFC074688464FF0A84253463146E3
:1011B000284600F0BDFE3A46434600F00FFC159A63
:1011C00012F0004F04D0129A81F000415242129264
:1011D000C4E90001129817B0BDE8F08FFB21E93F88
:1011E0007CD90240FB21F93F7370032E8A19A33B7F
:1011F000000040543163621A61B4D03DFB21394193
:1012000083C8C96D305FE43F0000E03FBC280000A8
:10121000382800001A280000182D4454FB21F93DFD
:101220003326A611460B113C2DE9FF4D21F0004855
:1012300007460C46B8F1795F08DA00F0E3FD0028B4
:1012400001BF0020324904B0BDE8F08D3A46234684
:101250001046194600F06CFE054602462D480E4623
:101260000B460621784400F05DF82A46334600F02C
:101270005FFEDDE9022382468B463846214600F0B8
:1012800057FE04460F4652465B462846314600F05C
:101290004FFE22463B4600F08BFF07468A464FF042
:1012A000FF322846314601F09FF81B4A90450ADA82
:1012B0003A46534600F07CFF04B00022BDE8F04DF2
:1012C000134B00F069BF154A4245A8BFA8F50015A9
:1012D0004FF00004B8BF124D22462B4600F068FFC5
:1012E0000646884622462B460020094900F060FF4A
:1012F00004460D463A4653463046414600F058FFF4
:1013000004B022462B46BDE8F04D00F045BF00007A
:101310000000F03FF02500003333D33F0000E93FE9
:101320000000D23F2DE9F0414F1E00EBC7010446FB
:10133000D1E9000115461E4637F006020DD02A46B7
:10134000334600F0F5FD7F1E04EBC703D3E900230D
:1013500000F044FB37F00602F1D1022F25D0042F14
:1013600013D0062F18BFBDE8F0812A46334600F09F
:10137000DFFDD4E90A2300F031FB2A46334600F0B2
:10138000D7FDD4E9082300F029FB2A46334600F0B4
:10139000CFFDD4E9062300F021FB2A46334600F0B6
:1013A000C7FDD4E9042300F019FB2A46334600F0B8
:1013B000BFFDD4E9022300F011FB2A46334600F0BA
:1013C000B7FDD4E90023BDE8F04100F007BB000001
:1013D0002DE9FF4D054621F0004084B00C46B0F1E8
:1013E000795F0BDA2846FFF747FD042808BF00F0B5
:1013F00075F8284608B02146BDE8F08D2A460B4610
:10140000104600F095FD06460F462A46234600F09A
:101410008FFD804626488A4632463B460521784461
:10142000FFF780FF83461098029160B3214A224B58
:101430004046514600F07CFDCDE900015A46404649
:101440005146029B00F074FD82468846DDE90601A4
:101450004FF0FF3200F0C8FF5246434600F0A8FEAE
:1014600032463B4600F064FDDDE9062300F0A0FEB5
:10147000DDE9002300F09CFE08B02A462346BDE8C3
:10148000F04D00F089BE0B465A463046394600F012
:101490004FFD084A084B00F0A1FA4246534600F0BF
:1014A00047FD08B02A462346BDE8F04D00F096BA45
:1014B0002E250000495555555555C5BF012200F050
:1014C00093BF002213461046114600F043BB40F282
:1014D000013200204FF0E04100F086BF024A0020B8
:1014E000110700F081BF000001FDFFFF00B5244B94
:1014F00021F0004287B09A42DCBF0022134629DD6A
:10150000204B9A4208D140B94FF00100FEF784FE0B
:10151000FFF7D7FF07B000BD03DBFFF7CFFF07B032
:1015200000BD02AAFFF7BCFC10F0030104BF0DF1DF
:10153000080C9CE80F000DD0012001290ED00229D3
:1015400014D00DF1080C00909CE80F00FFF740FF4D
:1015500007B000BDFFF768FE07B000BD0DF1080C35
:1015600000909CE80F00FFF733FF05E00DF1080C39
:101570009CE80F00FFF758FE07B081F0004100BD66
:10158000FB21E93F0000F07F10B56FF00400FFF78A
:10159000EFF90A4800680A49B0FBF1F00949087000
:1015A0000846007800EB4001C1EBC0104FF6FF7118
:1015B00001EAC0000449088010BD000000000020BE
:1015C00000127A00680100206A0100200146114AD9
:1015D00012884A434FF0E0235A6100229A611A466A
:1015E000126942F001021A6100BF4FF0E022106957
:1015F00000F001021AB100F48032002AF5D04FF059
:10160000E022126922F001024FF0E0231A61002269
:101610009A6170476A0100202DE9F04D894BCE0F89
:1016200021F0004784B005460C469F4230D38648DF
:10163000874211D3C7F31300284305D004B02846CE
:10164000BDE8F04DFFF73ABF002E1ABF002001465B
:10165000284604B0BDE8F08D7C4A284600F066FDBF
:1016600007D20220FEF7D8FD04B0BDE8F04DFFF729
:101670002EBF774A774B2846214600F01DFC07D243
:101680000220FEF7C9FD04B0BDE8F04DFFF726BF0C
:101690007148B84248D27148874215D270487844A0
:1016A00000EBC6002146D0E90023284600F080FD6B
:1016B000CDE900016B48784400EBC600D0E900ABEF
:1016C000C6F10100861B26E0674A684B2846214682
:1016D00000F02EFC664A7A4402EBC603D3E90023ED
:1016E00000F07CF900F08EFB064600F0BAFB0746DE
:1016F0008846604A604B00F01BFC2A46234600F0F7
:101700004BFDCDE900015D4A5D4B3846414600F096
:101710000FFC82468B46DDE9000152465B4600F035
:1017200047FD05460C4618E05648874214D2564AF3
:10173000564B2846214600F051F9554E00223346BB
:1017400000F0F4FC08D204B0334628462146BDE838
:10175000F04D002200F042B900262A4623461046EA
:10176000194600F0E5FB804602464A480F460B4604
:1017700005217844FFF7D6FD42463B4600F0D8FBF2
:101780002A46234600F008FD07468846E6B302468F
:101790000B4600204FF0804100F00AFDCDE9020128
:1017A0003A4643462846214600F0C2FBDDE90223C3
:1017B00000F0D0F952465B4600F0EEFCDDE9002374
:1017C00000F0F6FC0022324B00F0E6FC6FF47F7272
:1017D0009642A2BF01EB065104B0BDE8F08D4FF078
:1017E0007A5202EB065211442B4A00F0FDFD0446EA
:1017F0000D46FFF741FB042808BFFFF76FFE2046A8
:1018000004B02946BDE8F08DFFE700224FF0804389
:1018100000F0CEFC82460E463A4643462846214614
:1018200000F086FB5246334600F094F92A462346E0
:1018300000F0BEFC04B00022BDE8F04D144B00F0F7
:10184000ABBC0000422E86400000F07FEF39FAFE6C
:1018500051302DD5104987C0422ED63FB2A2F03F5D
:101860006E21000066210000FE822B654715F73FC0
:10187000262100000000E0FE422EE63F763C79354E
:10188000EF39EA3D0000303E9C7500883CE4377E2D
:101890000000F03FBA20000018FCFFFFA4B00020B9
:1018A0001E901F902090219022908DF88C00012096
:1018B0008DF86C000020ADF86E00ADF8700064206B
:1018C000ADF872000020ADF874001BA807C818AB73
:1018D00007C34FF47A70ADF84000ADF8420010A88D
:1018E000FFF7B0F900201490159016901790012082
:1018F0008DF8240000208DF825000A908DF82C002A
:1019000028208DF82E0005208DF8310000208DF85C
:101910002F008DF832008DF830008DF833008DF8EF
:1019200035000F9001208DF8080000208DF8090087
:1019300003908DF8100001208DF81200C8208DF85A
:10194000150014208DF813000A208DF816000020D1
:101950008DF814008DF817008DF819000890FFF726
:101960001DF8FFF711FE40F267114FF6FF70FFF709
:1019700045F8FEF745FDFEF7ADFEFEF78CFE00BF15
:1019800026E001211348FFF7F0F801211148FFF785
:1019900079F80B20104B09AA1BA900901EA8FEF78E
:1019A0002DFE09AA10A91BA8FEF756FF04460A201F
:1019B00094FBF0F000F5006085B229460020FEF7A8
:1019C0000FFD00BF0348FFF778F80A28FADD00BFD3
:1019D000D7E70000002C01400801002010B591EA73
:1019E000030F48BF83F0004300F1EA83841A71EBD0
:1019F000030C05D2121943EB0C03001B61EB0C0125
:101A0000DFF824E14FEA1154A4EB135C1EEA430F04
:101A100018BF9EEA445F73D023EA0E03DCF1200E68
:101A200021EA045143F4801332D322FA0CFE10EB66
:101A30000E0023FA0CFE41EB0E01CCF1200E03FA4E
:101A40000EFE10EB0E0051F10001B1F5801FCCF13C
:101A5000200E32D201EB045112FA0EF2BDE8104012
:101A600058BF7047401C38BF5FEA420218BF70473A
:101A7000002814BF20F0010041F100014FEA4103AA
:101A800013F5001F38BF7047A1F1C04100F048BBFB
:101A9000012A43EB0302ACF1200CDCF11F0E32BF34
:101AA0004FF0000E23FA0CF310EB030041EB04514E
:101AB000B4EB115FD0D0A1EB045101F580114908BE
:101AC0005FEA300001EB04510ED350F1000038BF43
:101AD00012FA0EFE08D1BDE81040C9E7401C38BF1D
:101AE0005FEA4202CAD1C3E7BDE810404FEA4103B2
:101AF00013F5001F38BF7047A1F1C04100F010BBC3
:101B00009EEA445F08D011EA5E0FBDE8104004BFB2
:101B100001F0004100207047BDE8104070B500F0B2
:101B2000B1FA00BF64FBBE3E0000E0FF02494FF087
:101B3000000000F027BC00BF0000F87F491058BF2C
:101B4000C1F140415B1058BFC3F140438B42EFF3FA
:101B5000008070472DE9C04130B4DFF8A0C23CEAF4
:101B6000111418BF3CEA131400F0EC8081EA03055D
:101B70001CEA111444EAD57418BF1CEA131500F0CE
:101B8000C780A4EB05044FF0004545EAC12145EAB2
:101B9000C32341EA505143EA525304F17F749942FE
:101BA00004F500344FEAC0204FEAC22208BF904239
:101BB00000F09C804FEA13650FF24016765D4FEA05
:101BC000134506FB05F7C7F1807706FB07F74FEAD9
:101BD000D737A7FB03687642C8F58038A7FB06CE47
:101BE00038BFA8F1010807FB08E64FF0000EA6FB7E
:101BF000028CE6FB03CEDCF1000CCEF1004E38BFC8
:101C0000AEF1010EA6FB0C584FF000074FF0000597
:101C1000E6FB0E87A1FB08C6A0FB07CE16EB0E065F
:101C200045F10005E1FB076515F1E04E7EBFA4F527
:101C300080345FEA46066D4116F1800745F10005E4
:101C40004FEA17274FEA066647EA0567A6F1DE4620
:101C5000B6F1805F4FEA15251FD9384624F0010CF4
:101C600005EBC471BCF1FE6F01EB0C1102D8F0BCA6
:101C7000BDE8008124425CBF01F5801E9EEAC47F5E
:101C800002D4F0BCBDE80081244238D4F0BCA1F1FC
:101C9000C041BDE8004100F043BA4FEAD22242EA17
:101CA00043524FEAD323A7FB02864FEAD02040EAF3
:101CB000415007FB03661EEA0E0F4FEAD12105FBD8
:101CC000026658BFA6EB0056B6EB00564FEA520E1E
:101CD0004EEAC37E18EB0E0E56EB530EBDD518EB35
:101CE00002085E417F1C55F10005B6E74FF48015F0
:101CF0004FF000074FF000064FF00008ADE7F0BCD2
:101D00004FF0000001F1C04101F00041BDE8008149
:101D100011EA0C1F0CEA131500D00CE013EA0C1F9B
:101D200000F025804FF00000F0BC81EA030101F0D3
:101D30000041BDE80081F0BCBDE8004181EA03013B
:101D400000F0EEB9F0BCBDE8004170B500F09AF9C2
:101D5000097EFC3E00F007B881EA03014FF0000065
:101D600001F00041704781EA030100F0D9B9F0BCED
:101D7000BDE800414FF0000021497047FFFDFBF92D
:101D8000F7F5F4F2F0EEEDEBE9E8E6E4E3E1E0DEAE
:101D9000DDDBDAD8D7D5D4D3D1D0CFCDCCCBCAC820
:101DA000C7C6C5C4C2C1C0BFBEBDBCBBBAB9B8B747
:101DB000B6B5B4B3B2B1B0AFAEADACABAAA9A8A83A
:101DC000A7A6A5A4A3A3A2A1A09F9F9E9D9C9C9B08
:101DD0009A999998979796959594939392919190B3
:101DE0008F8F8E8E8D8C8C8B8B8A89898888878744
:101DF0008685858484838382828181800000FF07B9
:101E00000000F87F4FEA41034FEA5353A3F5806384
:101E1000D3F11E03C8BFD3F1210C0CDD4FF00042FB
:101E200042EAC12242EA505232FA03FC8CEAE17CD7
:101E3000ACEBE1707047102BC4BF0020704703F576
:101E4000787CBCF1FF3F04D06FF0004282EA2100B1
:101E5000704770B500F016F9499224800020704751
:101E6000F2E710F0004248BF4042B0FA80F310FAA7
:101E700003F10AD0C3F11D0303F580634FEA41501B
:101E800002EB035202EBD12170474FF00000704784
:101E9000B0FA80F310FA03F10AD0C3F11D0303F581
:101EA00080634FEA41504FEA035202EBD121704761
:101EB0004FF000007047000051EA030C17D41CF5E6
:101EC000801F58BFBCF5801F00F10680994218BFE3
:101ED000704708BF9042704707D711F5801F58BF61
:101EE00013F5801F19D499427047894270471CF539
:101EF000801F08D5BCF5801FF7D58B4218BF7047EF
:101F000008BF824270474FF4001C1CEB410F38BFE2
:101F10001CEB430F01D28B42704770B500F0B2F852
:101F2000922449004FF000514FF08053FFF706BE56
:101F3000DFF848C170B51CEA111E1EBF1CEA13155C
:101F40009EEA0C0F95EA0C0F00F06F8081EA030403
:101F500023EA4C134EEAD47E21EA4C1141F480115D
:101F600043F48013AE44A1FB024CA0FB0365AEF129
:101F70007F7E361955EB0C05A1FB034C4CF1000399
:101F8000A0FB021C16EB0C06654153F1000309424D
:101F900018BF46F0010613F4007F0BD14FEA03315E
:101FA0004FEA0530340341EA155140EA16506FF00C
:101FB00003020AE04FEAC3214FEAC520F40241EAD6
:101FC000555140EA56506FF0020202EB2E4201EBEF
:101FD000025585EACE710AD05FEA440C18BF24F09E
:101FE000004450F1000041F1000120EAD47040F2B9
:101FF000FE7C624500D270BDA84214BF4FF0804401
:102000004FF04044002E08BF0024BEF1806FA8BFEF
:10201000A1F1C041BDE8704080F282804FF0000025
:1020200001F1C04101F0004170479EEA0C0F0CEA3B
:10203000131518BF95EA0C0F06D04FF0000081EA87
:10204000030E0EF0004170BD00F01CF88900013E47
:1020500000F007B800F009B84FEA430C5FEA5C5C97
:1020600008D081EA030100F05BB84FEA410C5FEA57
:102070005C5CF6D14FF00000014970470000FF079B
:102080000000F87F0EF1020E2EF0030E5EF8046BD6
:10209000364205D4012A43EB030515F5001F12D87B
:1020A000012841EB010C1CF5001F0CD80ED14FEAA2
:1020B000D17C15F5001F0CEB4C0C0CF1020C08BF89
:1020C0004CEBD37C04E04FF0080C01E04FEAD37CEA
:1020D0000CEB4C0526FA05F606F00706B6F1040CE3
:1020E00006D20EEB860CBDE870404CF0010C604748
:1020F000DFE80CF0090B02024FF000414FF0000046
:10210000A1F5002170BD19461046012851EB0104CC
:1021100018BFD4F5001484BF002001F0004170BD49
:102120000808A0F500114FEA3101704753EA010C8D
:1021300017D41CF5801F58BFBCF5801F00F1068026
:102140008B4218BF704708BF8242704707D713F50C
:10215000801F58BF11F5801F19D48B4270479B42D6
:1021600070471CF5801F08D5BCF5801FF7D5994234
:1021700018BF704708BF904270474FF4001C1CEB1B
:10218000430F38BF1CEB410F01D2994270470FB487
:102190000CBC03BCFFF7C1BE91EA030F10B581F080
:1021A00000413FF523AC83F0004300F009B8000084
:1021B00010B591EA030F48BF83F000433FF516AC1A
:1021C000841A71EB030C07D212198CF0004C43EB0C
:1021D0000C03001B61EB0C01DFF8A4E14FEA115482
:1021E000A4EB135C1EEA430F18BF9EEA445F00F0A5
:1021F000B08023EA6E03524221EA0451C3EB6E031E
:1022000038BF5B1EDCF1200E25D322FA0CFE10EB4A
:102210000E0043FA0CFE41EB0E01CCF1200E03FA46
:102220000EFE10EB0E0051F10001CCF1200E29D46E
:1022300012FA0EF201EB0451BDE8104058BF70478E
:10224000401C1CBFB2F1004F704700280CBF491C56
:1022500020F00100704712EB020E43EB030218BF9F
:102260004FF0010E4EEA4202ACF1200CDCF11E0EE2
:1022700054D943FA0CFE10EB0E0051F1FF31CCF1B2
:102280001E0ED5D50EF1010E12FA0EFE404141EBA5
:10229000010101EB445C5FEA5C5C10D910EBDE707D
:1022A00001EB045138BFBEF1004FBDE8104018BF2C
:1022B000704700280CBF491C20F00100704730D245
:1022C0004FEAD42C11F5001124F400641BD0B1FAAC
:1022D00081F20B3AA41AA41ED2F12003914030FAE5
:1022E00003F31943904001EBCC71002C01EB045136
:1022F000BDE81040A8BF704701F1C0414FF0000099
:1023000001F000417047B0FA80F310FA03F100D1F8
:1023100010BDE41A173C4805C90AE4E701EB045173
:1023200010BD491001EB0451BDE810404FEA3000E8
:1023300002E04FF0000170474A0008BF0042F8D0A9
:10234000B2F5001F28BF704701F000414FF00000B8
:1023500070479EEA445F07D011EA5E0FBDE8104067
:1023600004BF002100207047BDE8104070B5FFF7A2
:1023700089FE00BF40DFF63E83F000411046704703
:102380000000E0FF0CF00F03092B08BF082000F04D
:1023900059800A2B0BD0082B18BF704708BF1CF0C0
:1023A000400F0AD04FF000004FF0000170471CF0C2
:1023B000400F18BF4FF0004070471CF0100F08D0BE
:1023C00020F0704300F07F4242EAD3014FEA4370AD
:1023D000704700F0604021F07F4242EA000201F0C5
:1023E0007F4040EA727070474FF0FF0C4CF4E06C95
:1023F0001CEA11531CBF9CEA030C9445C2BFDA428D
:1024000001EB02517047002B0DD0BCF1000F0FD033
:10241000002A01F00041A4BF41F0E04141F07F619A
:102420004FF00000704701F000414FF0000070478E
:1024300050EA01334FF09B0C18BF4CF0806C7FF4D6
:1024400075AB70471CF4801F11D01CF4E02F03D033
:102450006FEACC31490070474FF04050EFF30082F3
:1024600022F0704242EA000282F3008870474FF087
:10247000000070470001020303040506070708096E
:102480000A0B0B0C0D0E0F0F10111213131415164F
:10249000171718191A1A1B1C1D1E1E1F2021212276
:1024A0002324242526272828292A2B2B2C2D2E2EA1
:1024B0002F30303132333334353636373838393AD5
:1024C0003B3B3C3D3D3E3F3F40414242434444450F
:1024D0004646474848494A4A4B4B4C4D4D4E4F4F54
:1024E00050505152525353545555565657585859A7
:1024F000595A5A5B5C5C5D5D5E5E5F5F6060616106
:102500006262636364646565666667676868696973
:10251000696A6A6B6B6C6C6C6D6D6E6E6E6F6F70F2
:102520007070717171727272737373747474757583
:102530007576767676777777787878787979797925
:10254000797A7A7A7A7B7B7B7B7B7B7C7C7C7C7CDC
:102550007C7D7D7D7D7D7D7D7D7D7E7E7E7E7E7EA6
:102560007E7E7E7E7E7E7E7E7E7E7E7E7E7E7E7E8B
:102570007E7E7E7E7E7E7E7E7E7E7E7E7E7E7E7E7B
:102580007E7D7D7D7D7D7D7D7D7D7C7C7C7C7C7C80
:102590007B7B7B7B7B7B7A7A7A7A7979797979789C
:1025A00078787877777776767676757575747474CB
:1025B0007373737272727171717070706F6F6E6E0F
:1025C0006E6D6D6C6C6C6B6B6A6A69696968686763
:1025D0006766666565646463636262616160605FCB
:1025E0005F5E5E5D5D5C5C5B5A5A59595858575640
:1025F00056555554535352525150504F4F4E4D4DC6
:102600004C4B4B4A4A494848474646454444434256
:102610004241403F3F3E3D3D3C3B3B3A39383837F5
:10262000363635343333323130302F2E2E2D2C2B9D
:102630002B2A292828272625242423222121201F4C
:102640001E1E1D1C1B1A1A19181717161514131302
:102650001211100F0F0E0D0C0B0B0A0908070706BD
:10266000050403030201000000FFFEFDFDFCFBFA70
:10267000F9F9F8F7F6F5F5F4F3F2F1F1F0EFEEED24
:10268000EDECEBEAE9E9E8E7E6E6E5E4E3E2E2E1DE
:10269000E0DFDFDEDDDCDCDBDAD9D8D8D7D6D5D594
:1026A000D4D3D2D2D1D0D0CFCECDCDCCCBCACAC943
:1026B000C8C8C7C6C5C5C4C3C3C2C1C1C0BFBEBEEA
:1026C000BDBCBCBBBABAB9B8B8B7B6B6B5B5B4B389
:1026D000B3B2B1B1B0B0AFAEAEADADACABABAAAA18
:1026E000A9A8A8A7A7A6A6A5A4A4A3A3A2A2A1A19E
:1026F000A0A09F9F9E9E9D9D9C9C9B9B9A9A999912
:102700009898979797969695959494949393929278
:102710009291919090908F8F8F8E8E8E8D8D8D8CCB
:102720008C8C8B8B8B8A8A8A8A898989888888880D
:10273000878787878786868686858585858585843C
:102740008484848484838383838383838383828256
:102750008282828282828282828282828282828259
:102760008282828282828282828282828282828249
:10277000828282828283838383838383838384842C
:1027800084848484858585858585868686868787F5
:10279000878787888888888989898A8A8A8A8B8BAB
:1027A0008B8C8C8C8D8D8D8E8E8E8F8F8F9090904C
:1027B00091919292929393949494959596969797DB
:1027C00097989899999A9A9B9B9C9C9D9D9E9E9F59
:1027D0009FA0A0A1A1A2A2A3A3A4A4A5A6A6A7A7C7
:1027E000A8A8A9AAAAABABACADADAEAEAFB0B0B124
:1027F000B1B2B3B3B4B5B5B6B6B7B8B8B9BABABB77
:10280000BCBCBDBEBEBFC0C1C1C2C3C3C4C5C5C6BA
:10281000C7C8C8C9CACACBCCCDCDCECFD0D0D1D2F3
:10282000D2D3D4D5D5D6D7D8D8D9DADBDCDCDDDE27
:10283000DFDFE0E1E2E2E3E4E5E6E6E7E8E9E9EA52
:10284000EBECEDEDEEEFF0F1F1F2F3F4F5F5F6F778
:10285000F8F9F9FAFBFCFDFDFEFF00007D7D7D7DB2
:102860007D7D7D7D7D7D7D7D7D7D7D7D7D7D7D7D98
:102870007C7C7C7C7C7C7C7C7B7B7B7B7B7B7A7AA2
:102880007A7A7A7A797979797878787878777777BF
:1028900077767676767575757474747373737272F1
:1028A000727271717070706F6F6F6E6E6E6D6D6C35
:1028B0006C6C6B6B6A6A696969686867676666658C
:1028C0006564646463636262616160605F5F5E5DF2
:1028D0005D5C5C5B5B5A5A5959585757565655556B
:1028E00054535352525150504F4F4E4D4D4C4B4BF1
:1028F0004A4A494848474646454444434242414083
:10290000403F3E3E3D3C3C3B3A393938373736351F
:10291000343433323231302F2F2E2D2C2C2B2A29C8
:10292000292827262625242323222120201F1E1D77
:102930001D1C1B1A1919181716161514131212112B
:10294000100F0F0E0D0C0B0B0A09080707060504E4
:1029500003030201000000FFFEFDFDFCFBFAF9F994
:10296000F8F7F6F5F5F4F3F2F1F1F0EFEEEEEDEC49
:10297000EBEAEAE9E8E7E7E6E5E4E3E3E2E1E0E001
:10298000DFDEDDDDDCDBDADAD9D8D7D7D6D5D4D4B3
:10299000D3D2D1D1D0CFCECECDCCCCCBCAC9C9C861
:1029A000C7C7C6C5C4C4C3C2C2C1C0C0BFBEBEBD06
:1029B000BCBCBBBABAB9B8B8B7B6B6B5B5B4B3B3A0
:1029C000B2B1B1B0B0AFAEAEADADACABABAAAAA92F
:1029D000A9A8A7A7A6A6A5A5A4A4A3A3A2A1A1A0B0
:1029E000A09F9F9E9E9D9D9C9C9C9B9B9A9A999923
:1029F0009898979797969695959494949393929286
:102A0000929191919090908F8F8E8E8E8E8D8D8DD4
:102A10008C8C8C8B8B8B8A8A8A8A89898989888815
:102A2000888888878787878686868686868585853F
:102A30008585858484848484848484838383838358
:102A40008383838383838383838383838383838356
:102A50008383838383838383838383838383838346
:102A60008383838384848484848484848585858526
:102A700085858686868686868787878788888888EC
:102A800088898989898A8A8A8A8B8B8B8C8C8C8DA0
:102A90008D8D8E8E8E8E8F8F90909091919192923F
:102AA00092939394949495959696979797989899CE
:102AB000999A9A9B9B9C9C9C9D9D9E9E9F9FA0A04B
:102AC000A1A1A2A3A3A4A4A5A5A6A6A7A7A8A9A9B6
:102AD000AAAAABABACADADAEAEAFB0B0B1B1B2B314
:102AE000B3B4B5B5B6B6B7B8B8B9BABABBBCBCBD65
:102AF000BEBEBFC0C0C1C2C2C3C4C4C5C6C7C7C8AA
:102B0000C9C9CACBCCCCCDCECECFD0D1D1D2D3D4E3
:102B1000D4D5D6D7D7D8D9DADADBDCDDDDDEDFE015
:102B2000E0E1E2E3E3E4E5E6E7E7E8E9EAEAEBEC43
:102B3000EDEEEEEFF0F1F1F2F3F4F5F5F6F7F8F96A
:102B4000F9FAFBFCFDFDFEFF000000010203030497
:102B50000506070708090A0B0B0C0D0E0F0F1011C5
:102B600012121314151616171819191A1B1C1D1DED
:102B70001E1F202021222323242526262728292919
:102B80002A2B2C2C2D2E2F2F30313232333434354A
:102B90003637373839393A3B3C3C3D3E3E3F404082
:102BA000414242434444454646474848494A4A4BC5
:102BB0004B4C4D4D4E4F4F50505152525353545514
:102BC00055565657575859595A5A5B5B5C5C5D5D70
:102BD0005E5F5F60606161626263636464646565D7
:102BE0006666676768686969696A6A6B6B6C6C6C52
:102BF0006D6D6E6E6E6F6F6F7070707171727272DC
:102C00007273737374747475757576767676777778
:102C100077777878787878797979797A7A7A7A7A28
:102C20007A7B7B7B7B7B7B7C7C7C7C7C7C7C7C7DEB
:102C30007D7D7D7D7D7D7D7D7D7D7D7D7D7D7D7DC4
:102C40007D7D7D7D73BC1BFD6443F68652F31D4A7A
:102C50006C3DAEE96F6AEA6490DB5084A5B5B41AA6
:102C6000C7B4853FF36EF8EC5806B52C56872EE2B4
:102C7000550135EFCFB2B32ECF0BA832E25C5A1814
:102C8000006652255129D9CBD9093AD05611E034E2
:102C90000CF3321F4B740661AE7AC7C2603DA48448
:102CA00064B4CE29CAF9927D15ED04D7F0BB144265
:102CB0000824B7E2482EF7114B911A8EEBCF5F85AF
:102CC00044787D4AF100B825D3753AEB3EC6F26FE1
:102CD0002FB85721A4B61B21E013F58D88D185E3C9
:102CE0002F998B1D1C8686B21690DF22373197F5FF
:102CF000F2DCA92D333AFB0EA0F43764C7C25DBDE8
:102D00004E68BDBF8E9524B258AEAD7EF2D8D2DFEC
:102D1000E617A08BF65E6FC5AA5FBE25772A5E8494
:102D2000A451EF643C30DAACA9B2ED5BFF51F7F689
:102D3000F4EB6683CD8E31267B0DE8B4203CE18434
:102D4000ED414B6B58DF1F3BB3671222BD0C6ED7B2
:102D500028E52033E7EB2856E0EE1811370346FE4E
:102D6000B1337B4E34FD9F2ADFA511522C7F769123
:102D7000DD0CC4198E123376403DF0224D97726AF5
:102D80001AC25F033BED76940ECC5BD72E8FDC002E
:102D9000F0101E9E66414A502BB5C720099198C776
:102DA000EAFA6819D5FB19AB54741889501C339989
:102DB000EEE1AC5556F574A75E45F31F7324C1DBF5
:102DC000B1FFEAF81C94D21CAE1FC01602F80B71BA
:102DD000D9E8D0EACAE60139D09EF3F9852A39C983
:102DE000C435487CFA67F54E54ACE6053812F7F363
:102DF00098F3DFCF5A42730F8519517ABA34066EB1
:102E000036BCF4AD78DC8E4165CAC26EA37033590E
:102E1000B7F6965A10D3E15EE094B48E11A1069FE6
:102E200045E1528D1973CB639B92BD6E92C57FB8FD
:102E300000CC2C75442AA39A85CB517C86511F0F58
:102E4000C052C54129B81A1B29B023AD0A1F2F2D26
:102E50006085D147D06D2E949485BB04F63415025D
:102E600094B3E2C845D2237C0172546A9E5068A98B
:102E7000A1433927412A62C7ECB88B9659D8F86A22
:102E8000BC5C2864FE7EE108B000ED292C75B29E82
:102E90001178885E8805B337C16FA4066571D7F1D4
:102EA000FAA8A4083AE7DDCA5E20BF7A24BC2E2A1D
:102EB000A487C49F935AAF8A3C09C8DF85635DC26B
:102EC00012AA18D6285D117B4AA855B2232B45E2D9
:102ED000F2FD1CAE824A03B89CAAE9E98F71A8E40E
:102EE000D1AC65D43CEAE701AD062486564D32F7F5
:102EF0009752B3F385D06055D661FC101E291E2F62
:102F00000337041B7752D316A3C24D2B8510F567E8
:102F1000C992FB7B6C1027469D820B83F5B3491E3B
:102F20008564436842E3D601104447FD4DFAB51469
:102F30002A2D71453D5D7D01214BF406ADA3B99C61
:102F4000A6F649C9BB6883170B27D1BCECCE2C7001
:102F5000D910A0ADC90EFD73BDFC074BB3686C85DD
:102F60004472506CB42C6DD9181D827B6631F233DB
:102F70001CCE5B9ECC9AE7D67156C38C83133E4E13
:102F800023C2A62772516ED1C609ABB7B9278FBC31
:102F90002BD1D03874A393A1AC69A41EC6BA360C49
:102FA00071D63471156140E23AAB74B4461DAB89F9
:102FB000CB7873BC752E9019E6B8B095834A8660BD
:102FC000DB3977A9ABD189DD884B7F9E1FA3D1A4C4
:102FD000BAE7A4BF6DE5039987AA5861B17D365F52
:102FE000FC00CB91C4B16AA185E0336318A9D2BDBE
:102FF00084E7269745783748BEB3C5377A230C59FE
:103000004D2B2C5278FE5124D029DD70FE992C04D2
:10301000BA399376B6AB2382D7C88D99EA515E87C9
:103020003A593A74283ED962DA913875FF00FE00A9
:10303000FD00FC00FC00FB00FA00F900F800F800BD
:10304000F700F600F500F400F400F300F200F100E0
:10305000F100F000EF00EE00EE00ED00EC00EB0000
:10306000EB00EA00E900E800E800E700E600E6001F
:10307000E500E400E300E300E200E100E100E0003D
:10308000DF00DE00DE00DD00DC00DC00DB00DA005B
:10309000DA00D900D800D800D700D600D600D50075
:1030A000D400D400D300D200D200D100D000D00090
:1030B000CF00CE00CE00CD00CC00CC00CB00CA00AB
:1030C000CA00C900C800C800C700C700C600C500C4
:1030D000C500C400C400C300C200C200C100C000DB
:1030E000C000BF00BF00BE00BD00BD00BC00BC00F2
:1030F000BB00BA00BA00B900B900B800B800B70008
:10310000B600B600B500B500B400B400B300B2001C
:10311000B200B100B100B000B000AF00AF00AE002F
:10312000AD00AD00AC00AC00AB00AB00AA00AA0043
:10313000A900A900A800A800A700A600A600A50055
:10314000A500A400A400A300A300A200A200A10067
:10315000A100A000A0009F009F009E009E009D0077
:103160009D009C009C009B009B009A009A00990087
:103170009900980098009700970097009600960095
:1031800095009500940094009300930092009200A3
:10319000910091009000900090008F008F008E00B1
:1031A0008E008D008D008C008C008C008B008B00BD
:1031B0008A008A00890089008900880088008700C9
:1031C00087008600860086008500850084008400D4
:1031D00083008300830082008200810081008100DF
:1031E000800080007F007F007F007E007E007D00E9
:1031F0007D007D007C007C007B007B007B007A00F2
:103200007A007900790079007800780078007700FA
:103210007700760076007600750075007500740002
:10322000740073007300730072007200720071000A
:10323000710071007000700070006F006F006E0010
:103240006E006E006D006D006D006C006C006C0017
:103250006B006B006B006A006A006A00690069001D
:103260006900680068006800670067006700660022
:103270006600660065006500650065006400640026
:10328000640063006300630062006200620061002A
:103290006100610060006000600060005F005F002E
:1032A0005F005E005E005E005D005D005D005D0031
:1032B0005C005C005C005B005B005B005B005A0034
:1032C0005A005A0059005900590059005800580036
:1032D0005800570057005700570056005600560038
:1032E0005600550055005500540054005400540039
:1032F000530053005300530052005200520052003A
:103300005100510051005100500050005000500039
:103310004F004F004F004F004E004E004E004E0039
:103320004D004D004D004D004C004C004C004C0039
:103330004B004B004B004B004A004A004A004A0039
:103340004A00490049004900490048004800480037
:103350004800470047004700470047004600460036
:103360004600460045004500450045004500440034
:103370004400440044004300430043004300430032
:103380004200420042004200420041004100410030
:1033900041004100400040004000400040003F002C
:1033A0003F003F003F003F003E003E003E003E0029
:1033B0003E003D003D003D003D003D003C003C0026
:1033C0003C003C003C003B003B003B003B003B0022
:1033D0003B003A003A003A003A003A00390039001E
:1033E0003900390039003900380038003800380019
:1033F0003800370037003700370037003700360015
:10340000360036003600360036003500350035000F
:103410003500350035003400340034003400340009
:103420003400330033003300330033003300320004
:1034300032003200320032003200310031003100FF
:1034400031003100310031003000300030003000F8
:10345000300030002F002F002F002F002F002F00F2
:103460002F002E002E002E002E002E002E002E00EB
:103470002D002D002D002D002D002D002D002C00E5
:103480002C002C002C002C002C002C002B002B00DE
:103490002B002B002B002B002B002A002A002A00D7
:1034A0002A002A002A002A002A00290029002900CF
:1034B00029002900290029002900280028002800C7
:1034C00028002800280028002700270027002700C0
:1034D00027002700270027002600260026002600B8
:1034E00026002600260026002600250025002500AF
:1034F00025002500250025002500240024002400A7
:10350000240024002400240024002400230023009D
:103510002300230023002300230023002300220094
:10352000220022002200220022002200220022008B
:103530002100210021002100210021002100210083
:103540002100210020002000200020002000200079
:103550002000200020001F001F001F001F001F0070
:103560001F001F001F001F001F001F001E001E0065
:103570001E001E001E001E001E001E001E001E005B
:103580001D001D001D001D001D001D001D001D0053
:103590001D001D001D001C001C001C001C001C0048
:1035A0001C001C001C001C001C001C001B001B003D
:1035B0001B001B001B001B001B001B001B001B0033
:1035C0001B001A001A001A001A001A001A001A002A
:1035D0001A001A001A001A001A001A00190019001D
:1035E0001900190019001900190019001900190013
:1035F0001900190018001800180018001800180009
:1036000018001800180018001800180018001700FB
:1036100017001700170017001700170017001700F2
:1036200017001700170017001700160016001600E5
:1036300016001600160016001600160016001600DA
:1036400016001600160015001500150015001500CF
:1036500015001500150015001500150015001500C2
:1036600015001400140014001400140014001400B9
:1036700014001400140014001400140014001400AA
:1036800014001300130013001300130013001300A1
:103690001300130013001300130013001300130092
:1036A0001300120012001200120012001200120089
:1036B000120012001200120012001200120012007A
:1036C000120012001200110011001100110011006F
:1036D0001100110011001100110011001100110062
:1036E0001100110011001100110010001000100055
:1036F000100010001000100010001000100010004A
:103700001000100010001000100010001000100039
:103710000F000F000F000F000F000F000F000F0031
:103720000F000F000F000F000F000F000F000F0021
:103730000F000F000F000F000F000E000E000E0014
:103740000E000E000E000E000E000E000E000E0009
:103750000E000E000E000E000E000E000E000E00F9
:103760000E000E000E000D000D000D000D000D00EE
:103770000D000D000D000D000D000D000D000D00E1
:103780000D000D000D000D000D000D000D000D00D1
:103790000D000D000C000C000C000C000C000C00C7
:1037A0000C000C000C000C000C000C000C000C00B9
:1037B0000C000C000C000C000C000C000C000C00A9
:1037C0000C000C000C000C000B000B000B000B009D
:1037D0000B000B000B000B000B000B000B000B0091
:1037E0000B000B000B000B000B000B000B000B0081
:1037F0000B000B000B000B000B000B000000000087
:10380000000000000000E03F000000000000E0BFFA
:103810000000E0FE422EE63F0000E0FE422EE6BF42
:10382000763C7935EF39EA3D763C7935EF39EABDBA
:103830003E5555555555C53F93BDBE166CC166BF27
:103840002CDE25AF6A56113FF16BD2C541BDBBBE20
:10385000D0A4BE726937663E4C5555555555A53FA7
:103860007751C1166CC156BF9015CB19A001FA3E15
:10387000AD529C804F7E92BEC4B1B4BD9EEE213E3F
:10388000D43888BEE9FAA8BD00004054FB21F93FB6
:103890003163621A61B4D03D0000601A61B4D03D5A
:1038A0007370032E8A19A33B0000002E8A19A33BD4
:1038B000C14920259A837B390000000000000000E8
:1038C0006E83F9A22915444ED15727FCC0DD34F58B
:1038D000999562DB4190433CAB6351FE61C5BBDE11
:1038E0003A6E24B7E0D24D42EA2E49061C92D10925
:1038F0001CEB1DFE3EA729B1F53582E88444BB2EA2
:1039000026709CE9417E5FB439D69139F4395383EE
:103910008B5F849C3B28F9BDFF97F81F0F9805DE4D
:103920008B112FEF1F6D0A5ACF7E366DB709CB274B
:10393000663F464F2DEA5F9EC7BA27757BF1E5EBE0
:10394000F739073DEA92528AB15FFB6B085D8D1F24
:10395000A6F810111111813FD561C119A0012ABF2C
:103960007DFEB157E31DC73EEB9C2B8AE6E55ABEB0
:103970007CD5CF5A3AD9E53D98390008000000209F
:103980006C010000280100086C3A00086C0100205E
:1039900064060000840100081184A24A04300A0170
:1039A000020304060708094132453249324E3252B9
:1039B0003257325C32623268326E3275327B32821A
:1039C000328B3293329C32A532AF32B932C432D00C
:1039D00032DC32E932F62306011A15041A26041ADB
:1039E00037041A4A041A5D041A72041A88041A9FCA
:1039F000041AB8041AD2041AED04230B021A2A047A
:103A00001A4B041A6E041A93041ABA041AE4042313
:103A100010031A3F041A70041AA4041ADC041A16BC
:103A2000D21A55041A97041ADD042327051AC8046C
:103A30002320061A7D041AE0041B49076419046355
:103A40002D08723F29084B21C8081A2608322A0B74
:103A50001828641829084B290A085B2628184A46A2
:0C3A6000081A24202A541862D20000002A
:04000005080000ED02
:00000001FF
